:020000040800F2
:1000000000000220D9040008E1060008E306000809
:10001000E5060008E7060008E90600080000000001
:10002000000000000000000000000000EB060008D7
:10003000ED06000800000000EF060008F1060008C9
:1000400029050008290500082905000829050008D8
:1000500029050008290500082905000829050008C8
:1000600029050008290500082905000829050008B8
:1000700029050008290500082905000829050008A8
:100080002905000829050008290500082905000898
:100090002905000829050008290500082905000888
:1000A0002905000829050008290500082905000878
:1000B0002905000829050008290500082905000868
:1000C0002905000829050008290500082905000858
:1000D0002905000829050008290500082905000848
:1000E0002905000829050008290500082905000838
:1000F0002905000829050008290500082905000828
:100100002905000829050008290500082905000817
:100110002905000829050008290500082905000807
:1001200029050008290500082905000829050008F7
:1001300029050008290500082905000829050008E7
:1001400029050008290500082905000829050008D7
:1001500029050008290500082905000829050008C7
:1001600029050008290500082905000829050008B7
:1001700029050008290500082905000800000000DD
:0801800029050008290500080B
:1001880010B5054C237833B9044B13B10448AFF3C9
:1001980000800123237010BD100000200000000023
:1001A8002C17000808B5034B1BB103490348AFF3EC
:1001B800008008BD00000000140000202C17000873
:1001C80053B94AB9002908BF00281CBF4FF0FF31B6
:1001D8004FF0FF3000F07AB9ADF1080C6DE904CEAC
:1001E80000F006F8DDF804E0DDE9022304B070470A
:1001F8002DE9F0478C460D460446089E002B51D148
:100208008A4217466DD9B2FA82FEBEF1000F0BD0B2
:10021800CEF1200C01FA0EF520FA0CFC02FA0EF7CA
:100228004CEA050C00FA0EF44FEA174A250CBCFB01
:10023800FAF81FFA87F90AFB18CC45EA0C4508FBBF
:1002480009F3AB420AD9ED1908F1FF3280F0238196
:10025800AB4240F22081A8F102083D44ED1AA4B255
:10026800B5FBFAF00AFB105544EA054400FB09F90E
:10027800A14509D9E41900F1FF3380F00A81A145AD
:1002880040F2078102383C44A4EB090440EA0840E4
:100298000021002E61D024FA0EF40023346073602C
:1002A800BDE8F0878B4207D9002E54D0002186E89C
:1002B80021000846BDE8F087B3FA83F1002940F031
:1002C8008E80AB4202D3824200F2FA80841A65EB38
:1002D80003050120AC46002E3FD086E81010BDE88B
:1002E800F08712B90127B7FBF2F7B7FA87FEBEF11C
:1002F800000F34D1EB1B3A0C1FFA87FC0121B3FB2A
:10030800F2F8250C02FB183345EA03450CFB08F309
:10031800AB4207D9ED1908F1FF3002D2AB4200F227
:10032800D1808046ED1AA3B2B5FBF2F002FB10555E
:1003380043EA05440CFB00FCA44507D9E41900F185
:10034800FF3302D2A44500F2B8801846A4EB0C048F
:1003580040EA08409DE731463046BDE8F087CEF1D7
:10036800200405FA0EF307FA0EF720FA04F83A0CFF
:1003780025FA04F448EA0308B4FBF2F14FEA1845F9
:1003880002FB11441FFA87FC45EA044501FB0CF304
:10039800AB4200FA0EF409D9ED1901F1FF3080F0F3
:1003A8008A80AB4240F2878002393D44EB1A1FFA3B
:1003B80088F5B3FBF2F002FB103345EA034500FB76
:1003C8000CF3AB4207D9ED1900F1FF386FD2AB42FD
:1003D8006DD902383D44EB1A40EA01418FE7C1F17B
:1003E800200722FA07F88B4005FA01F448EA0303CC
:1003F80020FA07FE4FEA134CFD404EEA040EB5FB07
:10040800FCF94FEA1E440CFB19551FFA83F844EA1D
:10041800054509FB08F4AC4202FA01F200FA01FAB8
:1004280008D9ED1809F1FF3043D2AC4241D9A9F1FE
:1004380002091D442D1B1FFA8EFEB5FBFCF00CFBB8
:1004480010554EEA054400FB08F8A04507D9E41802
:1004580000F1FF3529D2A04527D902381C4440EACB
:100468000940A4EB0804A0FB02894C45C6464D464A
:1004780015D312D056B1BAEB0E0364EB050404FA97
:1004880007F7CB401F43CC40376074600021BDE8BC
:10049800F0871846F8E69046E0E6C245EAD2B8EB9F
:1004A800020E69EB03050138E4E72846D7E7404622
:1004B80091E78146BEE7014678E702383C4445E7C4
:1004C800084608E7A8F102083D442BE7704700BF3B
:1004D800DFF834D0002103E00C4B5B584350043163
:1004E8000B480C4B42189A42F6D30B4A02E0002301
:1004F80042F8043B094B9A42F9D300F0AFF901F0F6
:10050800E5F800F09BF87047000002206417000827
:1005180000000020100000201000002070000020C3
:10052800FEE7000030B589B01422002103A801F0CD
:10053800F1F80024194B00941A6B194D42F080020F
:100548001A631A6B02F080020092009A01941A6BE7
:1005580042F001021A631A6B02F001020192019A39
:1005680002941A6B42F008021A631B6B03F008032B
:100578000293224628464FF40051029B00F020FBCC
:100588004FF40053039303A90123284604930594C9
:10059800069400F035FA09B030BD00BF00380240BB
:1005A800000C024030B595B03022002108A801F0B7
:1005B800B1F80021142203A801F0ACF800241D4B67
:1005C80001941A6C42F080521A641B6C03F0805339
:1005D8000193019B184B02941A6842F480421A60F6
:1005E8001B6803F480430293029B012308934FF492
:1005F800803309934FF480030F9304231093A823A7
:100608000225119308A8072313930E95129500F05D
:10061800E1FA0F2303934FF4A053069305214FF4F7
:10062800805303A804950594079300F083FC15B044
:1006380030BD00BF003802400070004008B500F02F
:1006480057F9FFF7AFFFFFF76DFF00F09BF80021A8
:100658000C480D4D0B4E0D4C00F07AFF0021094857
:1006680000F0BCFF2B68092BFCD900232B603268F3
:10067800236853634FF4005101330548236000F0A9
:10068800A4FAEFE7300000202C0000200000002032
:10069800000C02407047000007B50E4B0021009186
:1006A8005A6C42F480425A645A6C02F480420092B6
:1006B800009A01911A6C42F080521A641B6C03F084
:1006C800805301930720019B00F03EF903B05DF8C9
:1006D80004FB00BF003802407047FEE7FEE7FEE774
:1006E800FEE770477047704708B500F01BF9024AEB
:1006F80013680133136008BD2C0000200268094B01
:100708009A4282B00BD100230193074B5A6C42F0F6
:1007180001025A645B6C03F001030193019B02B070
:10072800704700BF000001400038024010B5044681
:1007380086B01422002101A800F0ECFF22680E4BBD
:100748009A4217D1002300930C4B0D481A6B42F0C4
:1007580001021A631B6B03F001030093009B4FF423
:10076800C073019302230293039301A90123059304
:1007780000F046F906B010BD000001400038024004
:100788000000024010B594B000241022002102A8F5
:1007980000F0C0FF1C22214606A80094019400F036
:1007A800B9FF1C2221460DA800F0B4FF29482A4BA6
:1007B800046180E818006023836042F2CF03C360BD
:1007C800446100F0F3FD08B1FFF764FF4FF4805374
:1007D80002A92048029300F0CCFC08B1FFF75AFFA9
:1007E8001C4800F0FDFD08B1FFF754FF00236946DF
:1007F80018480093019300F021FF08B1FFF74AFF62
:1008080000246023069322464FF4967306A91148E4
:100818000793089409940A940B940C9400F02AFE08
:1008280008B1FFF737FF0A2310930DA94FF40053BF
:1008380008480D940E940F9411941293139400F099
:100848001FFF08B1FFF726FF0248FFF76FFF14B03C
:1008580010BD00BF30000020000001400F49D1F852
:10086800883043F47003C1F888300D4B1A680020B3
:1008780042F001021A6098601A6822F0847222F429
:1008880080321A60074A5A601A6822F480221A6075
:10089800D8604FF000638B60704700BF00ED00E048
:1008A800003802401030002438B50E4A0E4B054679
:1008B80018784FF47A73B3FBF0F31068B0FBF3F0D9
:1008C80000F088F8044658B90F2D09D80246294681
:1008D8004FF0FF3000F04AF8044B20461D6038BD49
:1008E800012038BD04000020080000200C00002072
:1008F80008B50B4B1A6842F400721A601A6842F481
:1009080080621A601A6842F480721A60032000F04C
:100918001BF80020FFF7C8FFFFF7BEFE002008BD48
:10092800003C0240034A044B11681B780B441360D7
:10093800704700BF6C00002008000020014B1868B9
:10094800704700BF6C000020074AD36823F4E063B7
:100958001B041B0C43F0BF63000243F4003300F494
:10096800E0600343D360704700ED00E0174B30B5FB
:10097800DC68C4F30224C4F10703251D042B28BF37
:100988000423062D4FF0010505FA03F303F1FF33A5
:100998008CBF033C00241940A14005FA04F4013C33
:1009A8002240002842EA01024FEA0212AFBF00F1DA
:1009B800604000F00F00064BD2B2A5BF00F56140C1
:1009C800D2B21A5480F8002330BD00BF00ED00E019
:1009D80014ED00E00138B0F1807F0AD2064B074AD7
:1009E8005860F02182F823100020072298601A60CE
:1009F80070470120704700BF10E000E000ED00E004
:100A08002DE9F04F85B00B68DFF8AC81684ADFF854
:100A1800AC91019300234FF0010E019C0EFA03FEE6
:100A28000EEA0406B64540F0AE804C6824F0100784
:100A3800022F16D14FEAD30A00EB8A0A03F0070BFC
:100A4800DAF820504FEA8B0B4FF00F0C0CFA0BFC26
:100A580025EA0C0C0D6905FA0BF545EA0C05CAF8F0
:100A680020504FEA430A0325D0F800B005FA0AF5EA
:100A7800ED4304F0030C0BEA050B0CFA0AFC013FEA
:100A88004CEA0B0C012FC0F800C011D8876807EAA0
:100A9800050BCF6807FA0AFC4CEA0B078760476822
:100AA80027EA0E0EC4F300179F4047EA0E07476077
:100AB800C7683D408F6807FA0AF73D43C560E500FF
:100AC80061D54FF0000BCDF80CB0D8F84470394D13
:100AD80047F48047C8F84470D8F8447007F4804752
:100AE8000397039F23F0030707F1804707F59C3717
:100AF80003F0030CD7F808A04FEA8C0C4FF00F0E48
:100B08000EFA0CFEA8422AEA0E0E43D005F58065BF
:100B1800A84241D005F58065A8423FD005F580651B
:100B2800A8423DD005F58065A8423BD048453BD05A
:100B380005F50065A84239D005F58065A84214BFBF
:100B48000825072505FA0CF545EA0E05BD60156868
:100B5800F74314F4803F0CBF3D403543156055689A
:100B680014F4003F0CBF3D4035435560956814F4BC
:100B7800801F0CBF3D4035439560D568A40254BF23
:100B88003D403543D5600133102B7FF444AF05B0A9
:100B9800BDE8F08F5D46D5E70125D3E70225D1E70B
:100BA8000325CFE70425CDE70525CBE70625C9E7CB
:100BB800003C01400000024000380240001402409E
:100BC8000AB1816170470904FBE7436959404161F3
:100BD800704700002DE9F341044618B9012002B01E
:100BE800BDE8F0810368DD0710D42368980758D45E
:100BF80023681A0700F19A8023685B0700F1B88020
:100C0800A269002A40F019810020E8E7A64B9A68FB
:100C180002F00C02042A07D09A6802F00C02082A93
:100C28000AD15B68590207D59F4B1B689A03DCD52C
:100C38006368002BD9D1D1E763689B4DB3F5803F3A
:100C480011D12B6843F480332B60FFF777FE964D64
:100C580006462B689B03C8D4FFF770FE801B6428E8
:100C6800F7D90320BBE7B3F5A02F04D12B6843F4D1
:100C780080232B60E5E72A6822F480322A602A68FC
:100C880022F480222A60002BDFD1FFF757FE0646A8
:100C98002B689F03A9D5FFF751FE801B6428F7D95D
:100CA800DFE7814B9A6812F00C0F07D09A6802F0C0
:100CB8000C02082A11D15B685E020ED47A4B1A68BE
:100CC800950702D5E268012A88D11A68216922F0BD
:100CD800F80242EAC1021A608AE7E268734BB2B1CD
:100CE80001221A60FFF72AFE6F4D06462B68980707
:100CF80007D52B68226923F0F80343EAC2032B6067
:100D080076E7FFF71BFE801B0228EFD9A9E71A60D8
:100D1800FFF714FE644D06462B6899077FF568AF08
:100D2800FFF70CFE801B0228F6D99AE76269604B30
:100D38007AB101221A60FFF701FE5B4D06466B6F20
:100D48009F073FF559AFFFF7F9FD801B0228F6D939
:100D580087E71A60FFF7F2FD534D06466B6F980759
:100D68007FF54AAFFFF7EAFD801B0228F6D978E73E
:100D78004D4B1A6C12F0805228D101921A6C42F035
:100D880080521A641B6C03F080530193019B012667
:100D9800484D2B68D9051BD5A368434D012B27D196
:100DA8002B6F43F001032B67FFF7C8FD3E4D074645
:100DB80041F288382B6F9B0739D5002E3FF420AFBE
:100DC800394A136C23F08053136419E70026DFE7D0
:100DD8002B6843F480732B60FFF7B0FD07462B6840
:100DE800DA05D9D4FFF7AAFDC01B0228F7D938E7DE
:100DF800052B04D12B6F43F004032B67D0E72A6F30
:100E080022F001022A672A6F22F004022A67002BC7
:100E1800CAD1FFF793FD41F2883807462B6F980730
:100E2800CBD5FFF78BFDC01B4045F7D919E7FFF776
:100E380085FDC01B4045BDD913E71B4DAB6803F0CA
:100E48000C03082B3FF4CAAE1B4E0023022A336062
:100E580034D1FFF773FD07462B6899011ED4226A27
:100E6800E3691343626A43EA8213E26A43EA02636C
:100E7800A26A0D4C5208013A43EA02436B6001230F
:100E88003360FFF75BFD054623689A013FF5BCAE6A
:100E9800FFF754FD401B0228F6D9E2E6FFF74EFDA6
:100EA800C01B0228D8D9DCE60038024000004742BF
:100EB800800E47420070004060004742FFF73EFD49
:100EC80004462B689B017FF59FAEFFF737FD001B9B
:100ED8000228F6D9C5E600BF134908B58B6803F0A8
:100EE8000C03042B03D0082B03D0104808BD10486E
:100EF80008BD4A684B68496813F4800314BF0C485E
:100F08000A48C1F3881118BF002302F03F02A1FB71
:100F18000001FFF755F9044B5B68C3F30143013344
:100F28005B00B0FBF3F008BD003802400024F40079
:100F380000127A002DE9F0410D46044610B901204F
:100F4800BDE8F081444B1A6802F00F028A4228D3A8
:100F580021688F072DD4C80740D43F4B1A6802F088
:100F68000F02954266D3226851076CD4130707D540
:100F78003A4A2169936823F4604343EAC1039360C2
:100F8800FFF7AAFF354B364A9B68C3F30313D35CBC
:100F9800D840344B18600020FFF786FC0020BDE8DD
:100FA800F081CAB21A701B6803F00F039942C6D1C8
:100FB800CEE72A4B11F0040F1EBF9A6842F4E052A4
:100FC8009A600E0742BF9A6842F460429A609A6833
:100FD800A06822F0F00202439A60BCE762681F4BE7
:100FE800012A1DD11B6813F4003FA8D01B4EB3681B
:100FF80023F003031343B360FFF7A0FC41F28838E2
:101008000746B368626803F00C03B3EB820FA4D001
:10101800FFF794FCC01B4045F3D90320BDE8F081DD
:10102800911E01291B6802D813F0007FDDE713F039
:10103800020FDAE7EAB21A701B6803F00F039D4249
:101048007FF47DAF8FE70549E0688B6823F4E053B0
:1010580003438B608AE700BF003C0240003802402F
:101068004417000804000020036A23F00103036208
:10107800036A426870B584690D6824F073042543D7
:101088008C6823F0020323430C4CA04209D004F5DA
:101098008064A04205D042604A6885614263036269
:1010A80070BDCC688E6923F0080323434C6922F491
:1010B8004072344323F004032243ECE7000001406C
:1010C800036A23F480730362036A426870B5C469D3
:1010D8000D6824F0730425438C6823F4007343EAF5
:1010E80004230E4CA04209D004F58064A04205D028
:1010F80042604A68C561C263036270BDCC688E698C
:1011080023F4006343EA04234C6922F44052344335
:1011180023F4806342EA0412EAE700BF00000140BA
:10112800036A23F48053036230B5046A4368C269D2
:101138000D6822F4E64242EA05228D6824F4005440
:1011480044EA0534094DA84209D005F58065A8424E
:1011580005D043604B68C2610364046230BD4D69C9
:1011680023F4804343EA8513F3E700BF00000140FE
:10117800704790F83830012B70B54FF002031CD03F
:1011880080F839300368012280F838209A6822F400
:101198007F4222F077029A600A68402A79D019D8EB
:1011A800102A00F093800AD8002A00F089800123D1
:1011B80080F83930002380F83830184670BD202A6E
:1011C80000F08A80302AF2D19A6822F0700242F048
:1011D800370236E0702A36D01BD8502A42D0602A0F
:1011E800E5D11C6A4D68CE6824F010041C62996928
:1011F8001A6A21F4704122F0A00242EA051241EA7B
:10120800063199611A629A6822F0700242F0670208
:1012180017E0B2F5805F11D0B2F5005FC7D18A68D8
:101228004D689C68C9682A4324F47F4442EA012235
:1012380022439A609A6842F4804202E09A6822F057
:1012480007029A60B3E78A684D689C68C9682A43B0
:1012580024F47F4442EA012222439A609A6842F0C9
:101268007702EEE74C68CE68196A1D6A25F0010519
:101278001D629A6921F00A0122F0F00242EA061280
:1012880021439A6119629A6822F0700242F057026B
:10129800D7E74C68CE68196A1D6A25F001051D62FA
:1012A8009A6921F00A0122F0F00242EA061221436B
:1012B8009A6119629A6822F0700242F04702C0E708
:1012C8009A6822F0700242F00702BAE79A6822F0A0
:1012D800700242F01702B4E79A6822F0700242F0F6
:1012E8002702AEE72E4A0368904212D0B0F1804F31
:1012F8000FD0A2F57C4290420BD002F5806290425A
:1013080007D002F58062904203D002F578429042FD
:101318001DD14A6823F070031343214A904204D137
:10132800CA6823F44073134328E0B0F1804FF7D024
:101338001C4A9042F4D002F580629042F0D002F547
:1013480080629042ECD002F578429042E8D0164A8A
:101358009042E5D002F580629042E1D002F58062C9
:101368009042DDD0A2F598329042D9D002F5806241
:101378009042D5D002F580629042D1D003608B684C
:10138800C3620B688362064B984206D003F58063FC
:10139800984202D00123436170470B690363F9E760
:1013A80000000140000400400040014010B5044620
:1013B800A0B190F8393003F0FF021BB980F838204B
:1013C800FFF79CF9022384F839302068211DFFF7C4
:1013D80089FF012384F83930002010BD012010BD99
:1013E80010B50446A0B190F8393003F0FF021BB9DC
:1013F80080F83820FFF7BCFE022384F839302068D3
:10140800211DFFF76FFF012384F83930002010BD3C
:10141800012010BD036A23F010030362036A4268C7
:1014280070B584690D6824F4E64444EA05258C689F
:1014380023F0200343EA04130D4CA04209D004F51D
:101448008064A04205D042604A6885618263036275
:1014580070BDCC688E6923F0800343EA04134C699D
:1014680022F44062344323F0400342EA8402EAE76C
:101478000000014038B590F83830012B04464FF091
:10148800020025D0012384F8383084F839000C2A6A
:1014980018D8DFE802F0071717171E1717172F17A6
:1014A800171740002068FFF7DFFD236809699A696C
:1014B80042F008029A619A6922F004029A619A69D4
:1014C8000A439A610123002084F8393084F83800EF
:1014D80038BD2068FFF79EFF236809699A6942F4BE
:1014E80000629A619A6922F480629A619A6942EA72
:1014F8000122E6E72068FFF7E3FD23680969DA6956
:1015080042F00802DA61DA6922F00402DA61DA6983
:101518000A43DA61D6E72068FFF702FE2368096903
:10152800DA6942F40062DA61DA6922F48062DA6127
:10153800DA6942EA0122ECE7036A10B501248C401B
:1015480023EA04030362036A8A401A43026210BD55
:1015580010B504460C290DD8DFE801F0070C0C0C77
:10156800220C0C0C270C0C0C2C000268D36843F0DE
:101578000203D36001222068FFF7DEFF2368104AC8
:10158800934203D002F58062934203D15A6C42F42D
:1015980000425A641A6842F001021A60002010BD25
:1015A8000268D36843F00403E3E70268D36843F0B2
:1015B8000803DEE70268D36843F01003D9E700BFE9
:1015C80000000140036A10B504248C4023EA040398
:1015D8000362036A8A401A43026210BD10B50446CA
:1015E80000680C290CD8DFE801F0070B0B0B1D0B6A
:1015F8000B0B210B0B0B2500C36843F00203C360E0
:10160800C36843F08003C3600422FFF7DBFF23684D
:101618005A6C42F400425A641A6842F001021A6095
:10162800002010BDC36843F00403E8E7C36843F033
:101638000803E4E7C36843F01003E0E790F83830A4
:10164800012B10B54FF0020318D080F83930036829
:101658000C685A68496822F070025A605A68224336
:101668005A609A6822F080029A609A680A439A60DF
:10167800012380F83930002380F83830184610BD2F
:1016880090F83830012B1FD0CB688A6823F4407358
:1016980013434A6823F4806313430A6823F40063FE
:1016A80013430A6923F4805313434A6923F400530C
:1016B80013438A6923F440431343026853640023A5
:1016C80080F83830184670470220704770B50D4EC4
:1016D8000D4CA41BA4100025A54209D10B4E0C4C9F
:1016E80000F020F8A41BA4100025A54205D170BD68
:1016F80056F8253098470135EEE756F825309847D3
:101708000135F2E75C1700085C1700085C17000851
:101718006017000802440346934200D1704703F85B
:10172800011BF9E7F8B500BFF8BC08BC9E46704736
:0C173800F8B500BFF8BC08BC9E46704726
:10174400000000000000000001020304060708096D
:08175400A4EAFF7F0100000080
:04175C00AD010008D3
:0417600089010008F3
:10176400010000000024F40001000000100000004B
:04000005080004D912
:00000001FF
